{
  "contractName": "DMarketplace",
  "abi": [
    {
      "inputs": [],
      "payable": false,
      "stateMutability": "nonpayable",
      "type": "constructor"
    },
    {
      "anonymous": false,
      "inputs": [
        {
          "indexed": false,
          "name": "serviceHash",
          "type": "string"
        },
        {
          "indexed": false,
          "name": "provider",
          "type": "address"
        }
      ],
      "name": "ServiceAdded",
      "type": "event"
    },
    {
      "constant": false,
      "inputs": [
        {
          "name": "serviceHash",
          "type": "string"
        }
      ],
      "name": "storeService",
      "outputs": [],
      "payable": false,
      "stateMutability": "nonpayable",
      "type": "function"
    },
    {
      "constant": true,
      "inputs": [
        {
          "name": "hashToVerify",
          "type": "string"
        }
      ],
      "name": "verifyService",
      "outputs": [
        {
          "name": "isServiceValid",
          "type": "bool"
        },
        {
          "name": "isProviderVerified",
          "type": "bool"
        }
      ],
      "payable": false,
      "stateMutability": "view",
      "type": "function"
    },
    {
      "constant": false,
      "inputs": [
        {
          "name": "provider",
          "type": "address"
        }
      ],
      "name": "addVerifiedProviders",
      "outputs": [],
      "payable": false,
      "stateMutability": "nonpayable",
      "type": "function"
    }
  ],
  "bytecode": "0x608060405234801561001057600080fd5b50600080546001600160a01b031916331781557368ac74f5e4e1a61013194b8b00ff17fed9618409905260036020527f206cdb701be10628740d88abcbe826ebdd115e9d77d6654ae6746453e5b34133805460ff1916600117905561062b8061007a6000396000f3fe608060405234801561001057600080fd5b50600436106100415760003560e01c806374f9ded114610046578063b44465cb146100ee578063c17654ef14610114575b600080fd5b6100ec6004803603602081101561005c57600080fd5b81019060208101813564010000000081111561007757600080fd5b82018360208201111561008957600080fd5b803590602001918460018302840111640100000000831117156100ab57600080fd5b91908080601f0160208091040260200160405190810160405280939291908181526020018383808284376000920191909152509295506101d5945050505050565b005b6100ec6004803603602081101561010457600080fd5b50356001600160a01b03166103f2565b6101ba6004803603602081101561012a57600080fd5b81019060208101813564010000000081111561014557600080fd5b82018360208201111561015757600080fd5b8035906020019184600183028401116401000000008311171561017957600080fd5b91908080601f0160208091040260200160405190810160405280939291908181526020018383808284376000920191909152509295506104d3945050505050565b60408051921515835290151560208301528051918290030190f35b600180826040518082805190602001908083835b602083106102085780518252601f1990920191602091820191016101e9565b51815160209384036101000a60001901801990921691161790529201948552506040519384900381018420805460ff19169515159590951790945550508251600092600292859290918291908401908083835b6020831061027a5780518252601f19909201916020918201910161025b565b51815160209384036101000a60001901801990921691161790529201948552506040519384900301909220546001600160a01b03169290921415915061033c905057336002826040518082805190602001908083835b602083106102ef5780518252601f1990920191602091820191016102d0565b51815160209384036101000a6000190180199092169116179052920194855250604051938490030190922080546001600160a01b0319166001600160a01b03949094169390931790925550505b7f78a8badb2c7c12f89486337cf12123612fb2f8382610511effa6688af42d008b81336040518080602001836001600160a01b03166001600160a01b03168152602001828103825284818151815260200191508051906020019080838360005b838110156103b457818101518382015260200161039c565b50505050905090810190601f1680156103e15780820380516001836020036101000a031916815260200191505b50935050505060405180910390a150565b6000546001600160a01b0316331461043e57604051600160e51b62461bcd0281526004018080602001828103825260398152602001806105c76039913960400191505060405180910390fd5b6001600160a01b03811660009081526003602052604090205460ff16156104af5760408051600160e51b62461bcd02815260206004820152601c60248201527f50726f766964657220697320616c726561647920766572696669656400000000604482015290519081900360640190fd5b6001600160a01b03166000908152600360205260409020805460ff19166001179055565b6000806001836040518082805190602001908083835b602083106105085780518252601f1990920191602091820191016104e9565b51815160209384036101000a6000190180199092169116179052920194855250604051938490038101842054875160ff909116946003945060009350600292899282918401908083835b602083106105715780518252601f199092019160209182019101610552565b51815160001960209485036101000a0190811690199190911617905292019485525060408051948590038201909420546001600160a01b031685528401949094525001600020549193505060ff16905091509156fe4f6e6c7920746865206f776e6572206f662074686520636f6e74726163742063616e206164642076657269666965642070726f766964657273a165627a7a723058206638dbfd4cdad9e305d7c27871910d95e21f509fbd93af5916e0c1045b5be9510029",
  "source": "pragma solidity >=0.4.21 <0.6.0;\n\ncontract DMarketplace {\n\n    address owner;\n\n    constructor() public {\n        owner = msg.sender;\n        // add one verified provider for testing\n        address verifiedProvider = 0x68Ac74f5e4e1a61013194b8B00ff17fed9618409;\n        providerToVerified[verifiedProvider] = true;\n    }\n\n    mapping(string => bool) services;\n    mapping(string => address) servicesToProvider;\n    mapping(address => bool) providerToVerified;\n\n    // Events\n    event ServiceAdded(\n        string serviceHash,\n        address provider\n    );\n\n    function storeService(string memory serviceHash) public {\n        //require(services[serviceHash] == '', 'Service is already stored');\n        services[serviceHash] = true;\n        // Set a provider for a particular service once\n        if (servicesToProvider[serviceHash] == address(0)) {\n            servicesToProvider[serviceHash] = msg.sender;\n        }\n        emit ServiceAdded(serviceHash, msg.sender);\n    }\n\n    function verifyService(string memory hashToVerify) public view returns (bool isServiceValid, bool isProviderVerified){\n        return (services[hashToVerify], providerToVerified[servicesToProvider[hashToVerify]]);\n    }\n\n    function addVerifiedProviders(address provider) public {\n        require(msg.sender == owner, 'Only the owner of the contract can add verified providers');\n        require(providerToVerified[provider] == false, 'Provider is already verified');\n        providerToVerified[provider] = true;\n    }\n}\n",
  "sourcePath": "/Users/erionsula/Desktop/BA/client/contracts/DMarketplace.sol",
  "compiler": {
    "name": "solc",
    "version": "0.5.8+commit.23d335f2.Emscripten.clang"
  },
  "schemaVersion": "3.0.10",
  "updatedAt": "2019-06-12T22:09:21.621Z",
  "devdoc": {
    "methods": {}
  },
  "userdoc": {
    "methods": {}
  }
}