{
  "contractName": "DMarketplace",
  "abi": [
    {
      "inputs": [],
      "payable": false,
      "stateMutability": "nonpayable",
      "type": "constructor"
    },
    {
      "anonymous": false,
      "inputs": [
        {
          "indexed": false,
          "name": "provider",
          "type": "address"
        },
        {
          "indexed": false,
          "name": "serviceHash",
          "type": "string"
        }
      ],
      "name": "serviceAdded",
      "type": "event"
    },
    {
      "anonymous": false,
      "inputs": [
        {
          "indexed": false,
          "name": "isValid",
          "type": "bool"
        }
      ],
      "name": "serviceVerified",
      "type": "event"
    },
    {
      "constant": false,
      "inputs": [
        {
          "name": "serviceHash",
          "type": "string"
        }
      ],
      "name": "storeService",
      "outputs": [],
      "payable": false,
      "stateMutability": "nonpayable",
      "type": "function"
    },
    {
      "constant": true,
      "inputs": [
        {
          "name": "provider",
          "type": "address"
        },
        {
          "name": "hashToVerify",
          "type": "string"
        }
      ],
      "name": "verifyService",
      "outputs": [
        {
          "name": "",
          "type": "bool"
        }
      ],
      "payable": false,
      "stateMutability": "view",
      "type": "function"
    }
  ],
  "bytecode": "0x6080604052600060025534801561001557600080fd5b50600080546001600160a01b0319163317905561045e806100376000396000f3fe608060405234801561001057600080fd5b50600436106100365760003560e01c80634279bb8e1461003b57806374f9ded114610105575b600080fd5b6100f16004803603604081101561005157600080fd5b6001600160a01b03823516919081019060408101602082013564010000000081111561007c57600080fd5b82018360208201111561008e57600080fd5b803590602001918460018302840111640100000000831117156100b057600080fd5b91908080601f0160208091040260200160405190810160405280939291908181526020018383808284376000920191909152509295506101ad945050505050565b604080519115158252519081900360200190f35b6101ab6004803603602081101561011b57600080fd5b81019060208101813564010000000081111561013657600080fd5b82018360208201111561014857600080fd5b8035906020019184600183028401116401000000008311171561016a57600080fd5b91908080601f0160208091040260200160405190810160405280939291908181526020018383808284376000920191909152509295506102c4945050505050565b005b6000816040516020018082805190602001908083835b602083106101e25780518252601f1990920191602091820191016101c3565b6001836020036101000a0380198251168184511680821785525050505050509050019150506040516020818303038152906040528051906020012060016000856001600160a01b03166001600160a01b0316815260200190815260200160002060405160200180828054600181600116156101000203166002900480156102a05780601f1061027e5761010080835404028352918201916102a0565b820191906000526020600020905b81548152906001019060200180831161028c575b50509150506040516020818303038152906040528051906020012014905092915050565b33600090815260016020908152604090912082516102e492840190610397565b506002805460010190556040805133808252602080830184815285519484019490945284517fae38a39a423f9c9210b444a63fadcf36b0447f4d91a111aacafa40c5ef4abfe4949293869390929091606084019185019080838360005b83811015610359578181015183820152602001610341565b50505050905090810190601f1680156103865780820380516001836020036101000a031916815260200191505b50935050505060405180910390a150565b828054600181600116156101000203166002900490600052602060002090601f016020900481019282601f106103d857805160ff1916838001178555610405565b82800160010185558215610405579182015b828111156104055782518255916020019190600101906103ea565b50610411929150610415565b5090565b61042f91905b80821115610411576000815560010161041b565b9056fea165627a7a72305820aebb8c3f64fab39c6d117f361c4a9a18ed519cc5e8d313ea891a6da2b6ae10480029",
  "source": "pragma solidity >=0.4.21 <0.6.0;\n\ncontract DMarketplace {\n\n    address owner;\n\n    constructor() public {\n        owner = msg.sender;\n    }\n\n    mapping(address => string) services;\n    uint addedServices = 0;\n\n    // Events\n    event serviceAdded(\n        address provider,\n        string serviceHash\n    );\n\n    event serviceVerified(\n        bool isValid\n    );\n\n    function storeService(string memory serviceHash) public {\n        //require(services[msg.sender] == '', 'User can only upload one service');\n        services[msg.sender] = serviceHash;\n        addedServices++;\n        emit serviceAdded(msg.sender, serviceHash);\n    }\n\n    function verifyService(address provider, string memory hashToVerify) public view returns (bool){\n        return keccak256(abi.encodePacked(services[provider])) == keccak256(abi.encodePacked(hashToVerify));\n    }\n\n    //    function addProvides() public {\n    //        require(msg.sender == owner, 'User must be owner of contract');\n    //        //TODO Only recognized providers should be able to add new services\n    //    }\n\n}\n",
  "sourcePath": "/Users/erionsula/Desktop/BA/client/contracts/DMarketplace.sol",
  "compiler": {
    "name": "solc",
    "version": "0.5.8+commit.23d335f2.Emscripten.clang"
  },
  "schemaVersion": "3.0.10",
  "updatedAt": "2019-06-09T11:32:32.709Z",
  "devdoc": {
    "methods": {}
  },
  "userdoc": {
    "methods": {}
  }
}