{
  "contractName": "DMarketplace",
  "abi": [
    {
      "inputs": [],
      "payable": false,
      "stateMutability": "nonpayable",
      "type": "constructor"
    },
    {
      "anonymous": false,
      "inputs": [
        {
          "indexed": false,
          "name": "serviceHash",
          "type": "string"
        }
      ],
      "name": "ServiceAdded",
      "type": "event"
    },
    {
      "constant": false,
      "inputs": [
        {
          "name": "serviceHash",
          "type": "string"
        }
      ],
      "name": "storeService",
      "outputs": [],
      "payable": false,
      "stateMutability": "nonpayable",
      "type": "function"
    },
    {
      "constant": true,
      "inputs": [
        {
          "name": "hashToVerify",
          "type": "string"
        }
      ],
      "name": "verifyService",
      "outputs": [
        {
          "name": "",
          "type": "bool"
        }
      ],
      "payable": false,
      "stateMutability": "view",
      "type": "function"
    }
  ],
  "bytecode": "0x608060405234801561001057600080fd5b50600080546001600160a01b0319163317905561033a806100326000396000f3fe608060405234801561001057600080fd5b50600436106100365760003560e01c806374f9ded11461003b578063c17654ef146100e3575b600080fd5b6100e16004803603602081101561005157600080fd5b81019060208101813564010000000081111561006c57600080fd5b82018360208201111561007e57600080fd5b803590602001918460018302840111640100000000831117156100a057600080fd5b91908080601f01602080910402602001604051908101604052809392919081815260200183838082843760009201919091525092955061019d945050505050565b005b610189600480360360208110156100f957600080fd5b81019060208101813564010000000081111561011457600080fd5b82018360208201111561012657600080fd5b8035906020019184600183028401116401000000008311171561014857600080fd5b91908080601f0160208091040260200160405190810160405280939291908181526020018383808284376000920191909152509295506102a1945050505050565b604080519115158252519081900360200190f35b600180826040518082805190602001908083835b602083106101d05780518252601f1990920191602091820191016101b1565b51815160209384036101000a6000190180199092169116179052920194855250604080519485900382018520805460ff19169615159690961790955580845285518482015285517f763f2f41e0c407dd0a7067f44e5468a0db74da9fdb6cd1cb20c7b6dae9375279958795945084935083019185019080838360005b8381101561026457818101518382015260200161024c565b50505050905090810190601f1680156102915780820380516001836020036101000a031916815260200191505b509250505060405180910390a150565b60006001826040518082805190602001908083835b602083106102d55780518252601f1990920191602091820191016102b6565b51815160209384036101000a600019018019909216911617905292019485525060405193849003019092205460ff16151594935050505056fea165627a7a72305820d4233f1603f37dd5d70e2dc14430b7dfab635fc4c2a4b64b8ce84a4f74ceba170029",
  "source": "pragma solidity >=0.4.21 <0.6.0;\n\ncontract DMarketplace {\n\n    address owner;\n\n    constructor() public {\n        owner = msg.sender;\n    }\n\n    mapping(string => bool) services;\n\n    // Events\n    event ServiceAdded(\n        string serviceHash\n    );\n\n    function storeService(string memory serviceHash) public {\n        //require(services[serviceHash] == '', 'Service is already stored');\n        services[serviceHash] = true;\n        emit ServiceAdded(serviceHash);\n    }\n\n    function verifyService(string memory hashToVerify) public view returns (bool){\n        return !!services[hashToVerify];\n    }\n\n    //    function addProvides() public {\n    //        require(msg.sender == owner, 'User must be owner of contract');\n    //        //TODO Only recognized providers should be able to add new services\n    //    }\n\n}\n",
  "sourcePath": "/Users/erionsula/Desktop/BA/client/contracts/DMarketplace.sol",
  "compiler": {
    "name": "solc",
    "version": "0.5.8+commit.23d335f2.Emscripten.clang"
  },
  "schemaVersion": "3.0.10",
  "updatedAt": "2019-06-11T21:26:25.859Z",
  "devdoc": {
    "methods": {}
  },
  "userdoc": {
    "methods": {}
  }
}