{
  "contractName": "DMarketplace",
  "abi": [
    {
      "inputs": [],
      "payable": false,
      "stateMutability": "nonpayable",
      "type": "constructor"
    },
    {
      "anonymous": false,
      "inputs": [
        {
          "indexed": false,
          "name": "index",
          "type": "uint256"
        },
        {
          "indexed": false,
          "name": "serviceHash",
          "type": "string"
        }
      ],
      "name": "ServiceAdded",
      "type": "event"
    },
    {
      "constant": false,
      "inputs": [
        {
          "name": "serviceHash",
          "type": "string"
        }
      ],
      "name": "storeService",
      "outputs": [],
      "payable": false,
      "stateMutability": "nonpayable",
      "type": "function"
    },
    {
      "constant": true,
      "inputs": [
        {
          "name": "index",
          "type": "uint256"
        },
        {
          "name": "hashToVerify",
          "type": "string"
        }
      ],
      "name": "verifyService",
      "outputs": [
        {
          "name": "",
          "type": "bool"
        }
      ],
      "payable": false,
      "stateMutability": "view",
      "type": "function"
    }
  ],
  "bytecode": "0x6080604052600060025534801561001557600080fd5b50600080546001600160a01b03191633179055610442806100376000396000f3fe608060405234801561001057600080fd5b50600436106100365760003560e01c8063572d77d41461003b57806374f9ded1146100fc575b600080fd5b6100e86004803603604081101561005157600080fd5b8135919081019060408101602082013564010000000081111561007357600080fd5b82018360208201111561008557600080fd5b803590602001918460018302840111640100000000831117156100a757600080fd5b91908080601f0160208091040260200160405190810160405280939291908181526020018383808284376000920191909152509295506101a4945050505050565b604080519115158252519081900360200190f35b6101a26004803603602081101561011257600080fd5b81019060208101813564010000000081111561012d57600080fd5b82018360208201111561013f57600080fd5b8035906020019184600183028401116401000000008311171561016157600080fd5b91908080601f0160208091040260200160405190810160405280939291908181526020018383808284376000920191909152509295506102a9945050505050565b005b6000816040516020018082805190602001908083835b602083106101d95780518252601f1990920191602091820191016101ba565b6001836020036101000a038019825116818451168082178552505050505050905001915050604051602081830303815290604052805190602001206001600085815260200190815260200160002060405160200180828054600181600116156101000203166002900480156102855780601f10610263576101008083540402835291820191610285565b820191906000526020600020905b815481529060010190602001808311610271575b50509150506040516020818303038152906040528051906020012014905092915050565b600254600090815260016020908152604090912082516102cb9284019061037b565b507fe1f8251252d428948683869e48119b3d7a3f4df9e46c775f5c6591cbd065f4d5600254826040518083815260200180602001828103825283818151815260200191508051906020019080838360005b8381101561033457818101518382015260200161031c565b50505050905090810190601f1680156103615780820380516001836020036101000a031916815260200191505b50935050505060405180910390a150600280546001019055565b828054600181600116156101000203166002900490600052602060002090601f016020900481019282601f106103bc57805160ff19168380011785556103e9565b828001600101855582156103e9579182015b828111156103e95782518255916020019190600101906103ce565b506103f59291506103f9565b5090565b61041391905b808211156103f557600081556001016103ff565b9056fea165627a7a7230582067e2f7fda945fbf61ed93c13ac64e71695d3090964beda12742f10288f71780a0029",
  "source": "pragma solidity >=0.4.21 <0.6.0;\n\ncontract DMarketplace {\n\n    address owner;\n\n    constructor() public {\n        owner = msg.sender;\n    }\n\n    mapping(uint => string) services;\n    uint addedServices = 0;\n\n    // Events\n    event ServiceAdded(\n        uint index,\n        string serviceHash\n    );\n\n\n    function storeService(string memory serviceHash) public {\n        //require(services[msg.sender] == '', 'User can only upload one service');\n        services[addedServices] = serviceHash;\n        emit ServiceAdded(addedServices, serviceHash);\n        addedServices++;\n    }\n\n    function verifyService(uint index, string memory hashToVerify) public view returns (bool){\n        return keccak256(abi.encodePacked(services[index])) == keccak256(abi.encodePacked(hashToVerify));\n    }\n\n    //    function addProvides() public {\n    //        require(msg.sender == owner, 'User must be owner of contract');\n    //        //TODO Only recognized providers should be able to add new services\n    //    }\n\n}\n",
  "sourcePath": "/Users/erionsula/Desktop/BA/client/contracts/DMarketplace.sol",
  "compiler": {
    "name": "solc",
    "version": "0.5.8+commit.23d335f2.Emscripten.clang"
  },
  "schemaVersion": "3.0.10",
  "updatedAt": "2019-06-09T13:52:46.380Z",
  "devdoc": {
    "methods": {}
  },
  "userdoc": {
    "methods": {}
  }
}